:100000000C9429020C945A020C945A020C945A0231
:100010000C945A020C945A020C945A020C945A02F0
:100020000C945A020C945A020C945A020C945A02E0
:100030000C945A020C945A020C945A020C945A02D0
:100040000C945A020C945A020C945A020C945A02C0
:100050000C945A020C945A020C945A020C942B35AC
:100060000C945A020C945A020C945A020C945A02A0
:100070000C945A020C945A020C945A020C945A0290
:100080000C945A020C945A020C945A020C945A0280
:100090000C949F350C9475350C945A020C945A02AA
:1000A0000C945A020C945A020C945A020C945A0260
:1000B0000C945A020C945A020C945A020C945A0250
:1000C0000C945A020C945A020C945A020C945A0240
:1000D0000C945A020C945A020C945A020C945A0230
:1000E0000C945A0207634236B79BD8A71A39685650
:1000F00018AEBAAB558C1D3CB7CC5763BD6DEDFD4A
:10010000753EF6177231BF000000803F0800000006
:10011000BE922449123EABAAAA2ABECDCCCC4C3EFC
:1001200000000080BEABAAAAAA3E00000000BF00EB
:100130000000803F0000000000084178D3BB4387E7
:10014000D1133D190E3CC3BD4282AD2B3E68EC82FB
:1001500076BED98FE1A93E4C80EFFFBE01C4FF7F80
:100160003F00000000000C94C51C0C94E5170C9493
:10017000D13A0C948D030C94E9040C94351A0C9428
:10018000983B0C94751A0C94151A0C94201D0C9421
:1001900052050C94BC040C94D61D0C949B030C9437
:1001A00013190C94421F0C94D5350C9473190C94AC
:1001B00062200C9497030C94B3190C9460030C9474
:1001C0008C1E0C94C3150C94A0030C947B1D0C94F2
:1001D000753B0C9485030C949D1F0C94053B0C946B
:1001E00074130C946A030C94B1180C9493030C943C
:1001F00072030C9466030C949F050C94503B0C9472
:100200000C050C94551A0C94F5150C94B1150C941E
:10021000C3170C945D0D0C9453190C94A1030C940A
:1002200058130C946E030C94E1150C94F5190C946E
:10023000953B0C94600D0C9475030C9494150C94E0
:10024000311E0C947F030C94E71E0C943D160C9405
:1002500055130C947B030C94F8040C941A050C941D
:1002600033190C94F0050C9493190C94621C0C94A3
:10027000A5030C948E150C94D3190C94CC1B0C94E0
:10028000822A0C9489030C94F81F31333A4C464F60
:100290002F464D2F414D0031323A416D70204D6F48
:1002A000640031313A5353472D45470031303A52BB
:1002B000656C656173650030393A44656361792026
:1002C000320030383A5375737461696E0030373AD2
:1002D000446563617920310030363A41747461635A
:1002E0006B0030353A52617465205363616C650070
:1002F00030343A446574756E652D4D756C0030333D
:100300003A46726571204D756C74700030323A4F08
:100310005020566F6C756D650030313A416C672026
:1003200046422050616E0020200020002020200046
:1003300000002100240027002A002D003000330097
:1003400001010000040107010A010000220025004C
:1003500028002B002E0031003400020100000501AE
:1003600008010B01000020002300260029002C00BA
:100370002F003200000100000301060109010505FC
:100380000505070508080808020202020A0A08080B
:100390000404040401010101010101010303030339
:1003A00003030303040707070C0C0C0C0C0C0C0CC8
:1003B0000202020206060606060606060B0B0B0BD9
:1003C0000B0B0B0B010210202008081020401020FE
:1003D0004080020102010804020101020408102009
:1003E0004080804020100804020180040201804007
:1003F0002010080402010804020101020408102070
:100400004080010204081020408000000A0B02090D
:100410000C0D0E080703040100000000000000009E
:1004200000000000000000000000000000000000CC
:100430000000000000001211100000000000000089
:1004400000000000000000000000000000000000AC
:10045000D53511241FBECFEFD1E2DEBFCDBF00E006
:100460000CBF14E0A0E0B2E0E8EBF9E800E00BBF5D
:1004700002C007900D92A230B107D9F721E1A2E0A6
:10048000B4E001C01D92AF34B207E1F712E0C9E257
:10049000D2E000E006C021970109802FFE010E94F2
:1004A000DD41C832D10780E00807A9F70E94BF36B6
:1004B0000C94DA440C940000E091300DF091310D71
:1004C000309719F08BE69DE0199580916C0D823F75
:1004D00009F4BAC090F5803C09F499C0B8F48039A9
:1004E00009F44FC040F4E091340DF091350D80389F
:1004F00009F44BC00895803A09F484C0E0913A0DA4
:10050000F0913B0D803B09F440C00895803E09F412
:1005100062C040F4E0913E0DF0913F0D803D09F442
:100520007AC00895803F09F47DC0E091440DF091B8
:10053000450D813F09F49BC008958A3FC1F1A8F49D
:10054000863F09F499C040F4E091480DF091490DBF
:10055000833F09F48CC00895883F09F1E091500D64
:10056000F091510D893FF9F008958C3F51F120F140
:100570008E3F61F1E091580DF091590D8F3F99F048
:100580000895E091360DF091370D309709F479C058
:1005900040916E0D60916D0D80916B0D1994E091FD
:1005A0004C0DF0914D0D309709F46BC01994E0910A
:1005B0004E0DF0914F0DF7CFE091520DF091530D8C
:1005C000F2CFE091540DF091550DEDCFE091560D25
:1005D000F091570DE8CFE091400DF091410D30972B
:1005E00009F44FC060916E0D20E8629FB0011124A4
:1005F00060787F7380916D0D8F77682B705280913A
:100600006B0D1994E091380DF091390DBECFE0914A
:100610003C0DF0913D0D3097A1F160916D0D8091F1
:100620006B0D1994E091420DF091430D309749F113
:1006300060916D0D70916E0D6138710510F060E87C
:1006400070E08FE69DE01994E091460DF091470D22
:100650003097B9F080916E0D20E8829FC00111247F
:1006600080789F7320916D0D2F77822B199430978E
:1006700041F080916D0D1994E0914A0DF0914B0D70
:1006800092CF08958150823108F05AC0E82FF0E0EF
:100690008827E25BFC4F8F4F0C94DD416E037203A1
:1006A000600366036A03A00375037B037F0385036E
:1006B00089038D0393039703A0039B03A103A50361
:1006C000809180008F7780938000089580918000D2
:1006D0008F7DF9CF80918000877FF5CF84B58F77AC
:1006E00084BD089584B58F7DFBCF8091B0008F7756
:1006F0008093B00008958091B0008F7DF9CF8091F4
:1007000090008F77809390000895809190008F7D66
:10071000F9CF80919000877FF5CF8091A0008F77EF
:100720008093A00008958091A0008F7DF9CF8091E3
:10073000A000877FF5CF809120018F7780932001E3
:100740000895809120018F7DF9CF80912001877FCE
:10075000F5CFCF93DF93282F30E0F901E65FFB4F11
:100760008491F901EC53FC4FD491F901E258FC4F0C
:10077000C491CC23A1F081110E944203EC2FF0E040
:10078000EE0FFF1FEC59FC4FA591B491EC91ED23B6
:1007900081E090E009F480E0DF91CF91089580E05E
:1007A00090E0FACF1F93CF93DF93282F30E0F90129
:1007B000E65FFB4F8491F901EC53FC4FD491F901B2
:1007C000E258FC4FC491CC23A9F0162F81110E944E
:1007D0004203EC2FF0E0EE0FFF1FE65BFC4FA5910C
:1007E000B4918FB7F894EC91111108C0D095DE2325
:1007F000DC938FBFDF91CF911F910895DE2BF8CF4F
:10080000CF93DF9390E0FC01EC53FC4F249182588E
:100810009C4FFC0184918823C9F090E0880F991FB8
:10082000FC01E05DFC4FA591B491FC01E65BFC4F3F
:10083000C591D49161110DC09FB7F8948C9120950A
:1008400082238C938881282328839FBFDF91CF91B7
:100850000895623051F49FB7F8943C91822F8095AF
:1008600083238C93E8812E2BEFCF8FB7F894EC91F4
:100870002E2B2C938FBFEACF863308F0865320911E
:100880007B00982F9870277F922B90937B00877026
:10089000806480937C0080917A00806480937A00E9
:1008A00080917A0086FDFCCF80917800909179004C
:1008B00008953FB7F89480912A0D90912B0DA09147
:1008C0002C0DB0912D0D26B5A89B05C02F3F19F01A
:1008D0000196A11DB11D3FBFBA2FA92F982F8827C0
:1008E000BC01CD01620F711D811D911D42E0660F9B
:1008F000771F881F991F4A95D1F708958F929F926D
:10090000AF92BF92CF92DF92EF92FF924B015C01C8
:100910000E9459046B017C010E9459046C197D09E5
:100920008E099F09683E734081059105A8F321E077
:10093000821A9108A108B10888EEC80E83E0D81E7B
:10094000E11CF11C81149104A104B10429F7FF906A
:10095000EF90DF90CF90BF90AF909F908F900895D1
:100960002FB7F8946091260D7091270D8091280D76
:100970009091290D2FBF0895AF92BF92CF92DF9231
:10098000EF92FF920F931F93CF93DF936C017B0144
:100990008B01040F151FEB015E01AE18BF08C017D5
:1009A000D10759F06991D601ED91FC910190F08148
:1009B000E02DC6011995892B79F7C501DF91CF91FB
:1009C0001F910F91FF90EF90DF90CF90BF90AF906D
:1009D0000895FC01538D448D252F30E0842F90E045
:1009E000821B930B541710F0CF960895019708952A
:1009F000FC01918D828D981761F0A28DAE0FBF2FF3
:100A0000B11D5D968C91928D9F5F9F73928F90E048
:100A100008958FEF9FEF0895FC01918D828D9817B7
:100A200031F0828DE80FF11D858D90E008958FEFF4
:100A30009FEF0895FC01918D228D892F90E0805CBD
:100A40009F4F821B91098F739927089580E09EE044
:100A50000E941A0521E0892B09F420E0822F0895D5
:100A6000FC01A48DA80FB92FB11DA35ABF4F2C9123
:100A7000848D90E001968F739927848FA689B7891A
:100A80002C93A089B1898C91837080648C93938D11
:100A9000848D981306C00288F389E02D80818F7DB4
:100AA00080830895EF92FF920F931F93CF93DF936C
:100AB000EC0181E0888F9B8D8C8D98131AC0E8899A
:100AC000F989808185FF15C09FB7F894EE89FF8969
:100AD0006083E889F98980818370806480839FBF07
:100AE00081E090E0DF91CF911F910F91FF90EF9007
:100AF0000895F62E0B8D10E00F5F1F4F0F73112717
:100B0000E02E8C8D8E110CC00FB607FCFACFE88951
:100B1000F989808185FFF5CFCE010E943005F1CFA4
:100B2000EB8DEC0FFD2FF11DE35AFF4FF0829FB7C5
:100B3000F8940B8FEA89FB8980818062CFCFCF93B5
:100B4000DF93EC01888D8823B9F0AA89BB89E889F5
:100B5000F9898C9185FD03C0808186FD0DC00FB69B
:100B600007FCF7CF8C9185FFF2CF808185FFEDCF19
:100B7000CE010E943005E9CFDF91CF91089580E04A
:100B800090E0892B49F080E090E0892B29F00E94C9
:100B9000000081110E94000080E090E0892B29F084
:100BA0000E94260581110E94000080E090E0892BC0
:100BB00049F080E090E0892B29F00E94000081112B
:100BC0000E94000080E090E0892B49F080E090E0F6
:100BD000892B29F00E94000081110C9400000895D7
:100BE0000895CF93DF93EC01E981FA8190818181AF
:100BF0009CBD8DBDE981FA8160E082810E94D203B3
:100C000081E08B83DF91CF9108958EBD0DB407FEF7
:100C1000FDCF08958FEF8EBD0DB407FEFDCF8EB5CD
:100C200008950F931F93CF93DF93EC010E94B004BC
:100C30008B010E940A068F3F69F00E94B004601B7E
:100C4000710BC617D707A8F780E0DF91CF911F91EE
:100C50000F91089581E0F9CFCF93DF93FC012381B9
:100C6000222361F0EC010180F281E02D61E08281BC
:100C70000E94D2038FEF0E9405061B82DF91CF9165
:100C80000895EF92FF920F931F93CF93DF93EC01A0
:100C90007B010E94B0048B010E940A068C838F3F67
:100CA000A1F40E94B004601B710B693E7340A0F375
:100CB00085E58883CE010E942C0680E0DF91CF91EC
:100CC0001F910F91FF90EF9008958E3F11F080E5F6
:100CD000F0CF8FEF8EBDF701D701A150BE4F9FEF30
:100CE0000DB407FEFDCF8EB59EBD8193AE17BF0735
:100CF000B9F70DB407FEFDCF8EB58C931C820E9410
:100D00000A060E940A0681E0D9CF0F931F93CF9362
:100D1000DF938C01862FEA010E94050688818EBD33
:100D20008981FE013296DE5F0DB407FEFDCF8EBDD8
:100D3000EC17FD0711F08191F7CF0DB407FEFDCF41
:100D40008FEF0E9405068FEF0E9405060E940A069B
:100D5000F80184838F71853059F087E58083C8015D
:100D60000E942C0680E0DF91CF911F910F91089592
:100D700081E0F9CFDF92EF92FF920F931F93CF9311
:100D8000DF938C01C62FD22FF32EE42ED52EFC013B
:100D90008381811103C0C8010E94F105CC2321F099
:100DA0008CE291E00E9411068C2F80640E9405065F
:100DB0008D2D0E9405068E2D0E9405068F2D0E9406
:100DC00005068D2F0E94050687E8C11101C085E93F
:100DD0000E9405060E940A06CBE00E940A06F8015E
:100DE000848387FF02C0C150C1F7DF91CF911F916B
:100DF0000F91FF90EF90DF9008950F931F93CF9383
:100E0000DF93EC0189018D81833039F089E0440F53
:100E1000551F661F771F8A95D1F79A01AB0168E1CC
:100E2000CE010E94BA06882339F082E38883CE017E
:100E30000E942C0610E021C0A8016EEFCE010E9496
:100E400085068823A1F380ED97E00E941106182FF4
:100E50008AE5112359F320E030E0A9016DE0CE01CD
:100E60000E94BA06882311F089E2E0CF0E940A06A8
:100E70008111FACFCE010E942C06812FDF91CF91F4
:100E80001F910F9108950F931F93CF93DF93EC0160
:100E900089018D81833039F089E0440F551F661F29
:100EA000771F8A95D1F79A01AB0161E1CE010E94CB
:100EB000BA06882339F080E38883CE010E942C068D
:100EC00010E00AC0B801CE010E944106182F882305
:100ED000A1F3CE010E942C06812FDF91CF911F91AB
:100EE0000F910895EF92FF921F93CF93DF93FC0130
:100EF000208111E020FF14C0EC017C01F7E0EF0E2F
:100F0000F11C4B815C816D817E81E981FA819701C1
:100F1000808191810E94FD06182F811108C010E088
:100F2000812FDF91CF911F91FF90EF9008958881DD
:100F300081FD04C088818E7F8883F2CFE981FA81A8
:100F40004B815C816D817E8184859585A685B78581
:100F5000480F591F6A1F7B1F9701808191810E9452
:100F6000FD068111E7CFDBCFCF92DF92EF92FF92A8
:100F70001F93CF93DF93EC016A017B01122F8B81CA
:100F80009C81AD81BE818C159D05AE05BF05B1F07C
:100F9000CE010E94720781110AC090E080E0DF91CB
:100FA000CF911F91FF90EF90DF90CF90089512FFA7
:100FB0000CC01882CB82DC82ED82FE8213708881A5
:100FC000182B1883CE010796EACFE981FA819E019A
:100FD000295F3F4FB701A601808191810E9443079D
:100FE0008111E7CFDACF8F929F92AF92BF92CF92CB
:100FF000DF92EF92FF920F931F931092EC0E41E05D
:1010000050E060E070E04093EF0E5093F00E60937C
:10101000F10E7093F20E27EE3EE03093090F20930D
:10102000080F1092070F4FEF5FEFBA0140930A0FBE
:1010300050930B0F60930C0F70930D0F882309F4DE
:1010400050C020E040E050E0BA0187E09FE00E94FD
:10105000B407009761F480E01F910F91FF90EF902B
:10106000DF90CF90BF90AF909F908F900895FC013C
:10107000E254FE4F20812F7771F78A539E4FFC0177
:10108000C080D180E280F380C114D104E104F10476
:1010900011F320E0B701A60187E09FE00E94B407AA
:1010A000FC01892BC1F2838594858115924099F6C4
:1010B0008089823081F686859785892B61F2258526
:1010C0002093E90E8FEF820F8093EA0E80E091E08B
:1010D000291769F08F5F893041F488E08093EB0E27
:1010E000BACFC12CD12C7601D4CF990FF1CF8093F8
:1010F000EB0E4689578970E060E04115510521F4F7
:1011000044A155A166A177A14093F30E5093F40E2C
:101110006093F50E7093F60E2685378546015701CC
:10112000820E931EA11CB11C8092FB0E9092FC0EAD
:10113000A092FD0EB092FE0E218932893093EE0E00
:101140002093ED0E440F551F661F771F480D591D44
:101150006A1D7B1D4093030F5093040F6093050F8E
:101160007093060F21893289A5E0220F331FAA95BB
:10117000E1F721503E4F232F33272695420F531F6F
:10118000611D711D4093F70E5093F80E6093F90E98
:101190007093FA0E0389148930E020E001151105DF
:1011A00021F400A111A122A133A1C41AD50AE60A93
:1011B000F70AC00ED11EE21EF31E04C0F694E79497
:1011C000D794C7948A95D2F7D701C6010196A11D7D
:1011D000B11D8093FF0E9093000FA093010FB09369
:1011E000020F85EFC8168FE0D806E104F10420F461
:1011F0008CE08093EC0E2FCF80E125EFC2162FEF0D
:10120000D206E104F10468F084A595A5A6A5B7A5CA
:101210008093030F9093040FA093050FB093060FD4
:1012200080E28093EC0E81E017CF8F929F92AF9275
:10123000BF92CF92DF92EF92FF920F931F934230B3
:1012400051056105710560F480E01F910F91FF90D9
:10125000EF90DF90CF90BF90AF909F908F900895C8
:10126000FC01C08CD18CE28CF38CC416D506E6064A
:10127000F70650F3480159016A017B0185818032EC
:1012800041F584899589A689B78917E07695679590
:10129000579547951A95D1F7480F591F6A1F7B1F1D
:1012A00023E0CF0180960E94B407009769F2E8948A
:1012B000C7F8DD24EE24FF24CC0CDD1CCC0CDD1C97
:1012C0008C0D9D1DFC0180829182A282B38281E0FF
:1012D000BCCF803109F0B8CF4489558966897789B8
:1012E0004D0D511D611D711D23E0CF0180960E949F
:1012F000B407009709F4A8CFDD24EE24FF24CC0C1A
:10130000DD1CC80ED91EF60111830083E0CFCF92F9
:10131000DF92EF92FF920F931F93CF93DF934230B0
:1013200051056105710550F48FEFDF91CF911F9149
:101330000F91FF90EF90DF90CF900895FC01C08C4B
:10134000D18CE28CF38CC416D506E606F70660F362
:1013500089016A017B01EC0185818032B9F58489BC
:101360009589A689B789E7E076956795579547955A
:10137000EA95D1F7480F591F6A1F7B1F22E0CE0163
:1013800080960E94B407009779F2E894C7F8DD24AC
:10139000EE24FF24CC0CDD1CCC0CDD1C8C0D9D1D23
:1013A000FC0180819181A281B381BF70488D598DEC
:1013B0006A8D7B8D481759076A077B0738F1F8015A
:1013C00080839183A283B38381E0AFCF803109F022
:1013D000ABCF44895589668977894D0D511D611DB3
:1013E000711D22E0CF0180960E94B407009709F496
:1013F0009BCFDD24EE24FF24CC0CDD1CC80ED91EAF
:10140000F60180819181B0E0A0E0D0CF80E08DCF67
:101410009F92AF92BF92CF92DF92EF92FF920F9383
:101420001F93CF93DF9300D01F92CDB7DEB75C013F
:101430006A017B0119821A821B821C829E012F5F26
:101440003F4FB701A601C5010E948709982E87FD6D
:1014500034C000E010E09801B701A601C5010E9468
:101460001509882351F1F501408551856285738501
:101470004C155D056E057F0550F0F1E0CF1AD108DF
:10148000E108F108F501C086D186E286F386C980BD
:10149000DA80EB80FC809110D1CF0F900F900F90ED
:1014A0000F90DF91CF911F910F91FF90EF90DF9000
:1014B000CF90BF90AF909F90089580E0EECFFC0159
:1014C0009C01255F3F4F80E080FB879587F99191D4
:1014D000890F2E173F07C1F708954F925F926F92C1
:1014E0007F928F929F92AF92BF92CF92DF92EF92B4
:1014F000FF920F931F93CF93DF93EC014A015B019F
:101500004C845D846E847F84A881AA2309F486C0FC
:10151000488959896A897B89481559056A057B0577
:1015200069F081149104A104B10451F41C861D8654
:101530001E861F86888A998AAA8ABB8A81E073C020
:10154000A3FF59C0088D198D2A8D3B8D08151905EB
:101550002A053B0508F462C0EE81FF81848190E09A
:1015600009968A019B010150110921093109082EB0
:1015700004C036952795179507950A94D2F77501FB
:101580006401B1E0CB1AD108E108F10804C0F69477
:10159000E794D794C7948A95D2F7C016D106E2068D
:1015A000F30628F0452B462B472B09F052C0A6FF27
:1015B0004BC0848D958DA68DB78D8C879D87AE870A
:1015C000BF878E01045F1F4FC114D104E104F104F1
:1015D00009F4B0CF4C855D856E857F8598018E813D
:1015E0009F810E94870991E0C91AD108E108F1089A
:1015F000181654F313C0A5FFAFCFEE81FF8186818B
:10160000978125E0880F991F2A95E1F7B0E0A0E0C7
:1016100088159905AA05BB0508F08CCF4C865D8618
:101620006E867F8680E0DF91CF911F910F91FF90B2
:10163000EF90DF90CF90BF90AF909F908F907F9072
:101640006F905F904F9008958C8D9D8DAE8DBF8D66
:10165000B4CFC01AD10AE20AF30AB3CFCF93DF9313
:10166000EC01262F4C895D896E897F898E819F814F
:1016700080960E94B407009771F02C813D812F70F5
:10168000332745E0220F331F4A95E1F7820F931F5E
:10169000DF91CF91089590E080E0FACFCF93DF9370
:1016A000FC012081211104C081E0DF91CF910895D8
:1016B000EC01828182FF27C061E0CF010E942E0BE6
:1016C000FC01892B29F489818160898380E0EDCF39
:1016D0008081853EC1F3888183FF08C0888D998D04
:1016E000AA8DBB8D848F958FA68FB78F8C8D9D8D86
:1016F000938F828F8C8D9D8DAE8DBF8DB58BA48B7E
:101700008A818B7F8A838E819F8180960E94720757
:101710008823C9F2C9CFCF93DF93EC010E944E0B0F
:101720001882DF91CF9108953F924F925F926F920E
:101730007F928F929F92AF92BF92CF92DF92EF9261
:10174000FF920F931F93CF93DF9300D01F92CDB7DB
:10175000DEB74C01FC01828184608283A680B78061
:101760004484558466847784F501C084D184E284FE
:10177000F384C414D504E604F70410F011E003C0A8
:101780007301620110E0FFEFCF1ADF0AEF0AFF0AD0
:10179000F501808D918DA28DB38D8C159D05AE05C3
:1017A000BF0538F4111131C0C084D184E284F384C0
:1017B000E5CF4C145D046E047F0439F19E012F5F68
:1017C0003F4FB701A601C5010E94870987FD1DC0D3
:1017D0008823C9F289819A81AB81BC81892B8A2BAC
:1017E0008B2B89F6112329F0F501C086D186E2867C
:1017F000F3860FEF1FEF2FEF3FE0B701A601C50102
:101800000E941509382E811118C0312C832D0F909C
:101810000F900F900F90DF91CF911F910F91FF903C
:10182000EF90DF90CF90BF90AF909F908F907F9080
:101830006F905F904F903F90089541145104610460
:10184000710431F4F401C486D586E686F786DECFCE
:1018500097018601B301A201C5010E9415098111FA
:10186000F1CFD3CF87FF0AC09CE0980F923030F0C1
:101870008D3F21F0803F18F4807F089580E0089527
:10188000982F9F7E282F2F7C203839F0803E29F01A
:1018900081E0903C19F080E0089581E00895DC013A
:1018A0008D919C91DC01ED91FC910190F081E02DF6
:1018B00019941F93CF93DF932150203118F587FFA0
:1018C00021C0D42F162FC82F622F682B80915A0D5C
:1018D00090915B0D0E944F0C612F6F7780915A0D94
:1018E00090915B0D0E944F0CCF7EC03C59F06D2F44
:1018F0006F7780915A0D90915B0DDF91CF911F9181
:101900000C944F0CDF91CF911F910895242F462FF7
:10191000682F80EB0C94590C6D3F48F46A3F10F42B
:10192000683F39F4FC01808191810C944F0C6E3F2B
:10193000C8F70895813E10F40C94590C883F28F0A4
:10194000682F8AE59DE00C948C0C08956F927F922D
:101950008F929F92AF92BF92CF92DF92EF92FF92BF
:101960000F931F93CF93DF9389E00E94A9035C013B
:1019700088E00E94A9036C0187E00E94A903EC01A2
:1019800086E30E94A9037C0187E30E94A9038C01DE
:101990008AE00E94A9034C018BE00E94A9033C014C
:1019A0000E94B00420910204309103044091040489
:1019B00050910504621B730B840B950B693C7105F8
:1019C0008105910508F476C0AB28E1F40E94B004CB
:1019D00060930204709303048093040490930504BD
:1019E000C4E0D0E0CE01DF91CF911F910F91FF9025
:1019F000EF90DF90CF90BF90AF909F908F907F90AF
:101A00006F900895CD2869F40E94B0046093020499
:101A1000709303048093040490930504C3E0D0E022
:101A2000E1CF209759F40E94B004609302047093B0
:101A300003048093040490930504D4CFEF2869F441
:101A40000E94B00460930204709303048093040422
:101A500090930504C1E0D0E0C5CF012B69F40E944A
:101A6000B004609302047093030480930404909381
:101A70000504C2E0D0E0B6CF892869F40E94B00422
:101A8000609302047093030480930404909305040C
:101A9000C5E0D0E0A7CF672869F40E94B004609346
:101AA0000204709303048093040490930504C6E039
:101AB000D0E098CFC7E0D0E095CF04960C944E0BC1
:101AC00090E080E00895FC01808181110FC080E2E8
:101AD000DF01982F1D929A95E9F777836683DB01E2
:101AE00015969C91903129F0903211F080E0089584
:101AF00080E4808381E082830895CF92DF92EF9229
:101B0000FF920F931F93CF93DF93FC0180E2DF01DD
:101B10001D928A95E9F7EB01AE81BF81B783A68359
:101B200055834483CC8CDD8CEE8CFF8CC086D186B3
:101B3000E286F3864F705527ED01A79695E0440F96
:101B4000551F9A95E1F7BE01640F751FEB018B8558
:101B500083FD16C0CD01840F951FEC018AA9877102
:101B60008083EB019B85987111F4886080830383E7
:101B70002370213009F44AC030F0223009F444C007
:101B8000108280E038C081E08283828181FF03C0BF
:101B900080818171A9F793960D911D912D913C91B2
:101BA0009697048B158B268B378BA40FB51FDB966E
:101BB0004D915C91DC9770E060E0BA0155274427B5
:101BC000ED01CF5BDF4F0881198130E020E0402B31
:101BD000512B622B732B448F558F668F778FAD5BA4
:101BE000BF4F8D919D910D90BC91A02D808F918FB5
:101BF000A28FB38F81E0DF91CF911F910F91FF9062
:101C0000EF90DF90CF90089583E0BECF82E0BCCF0D
:101C10008F929F92AF92BF920F931F93CF93DF93B8
:101C2000CDB7DEB7A1970FB6F894DEBF0FBECDBF1C
:101C300019A2423008F44AE08E010F5D1F4F842E36
:101C4000912CB12CA12CA50194010E94033EE62FFA
:101C5000B901CA01EA3044F5E05DD801EE938D0187
:101C6000232B242B252B79F790E080E0109769F047
:101C7000FD0101900020E9F73197AF014A1B5B0B92
:101C8000BD0187E391E10E94BC04A1960FB6F894D0
:101C9000DEBF0FBECDBFDF91CF911F910F91BF90DF
:101CA000AF909F908F900895E95CD7CFFC01019091
:101CB0000020E9F73197AF01481B590BBC0187E3BE
:101CC00091E10C94BC04CF93DF93843691056CF4BE
:101CD000EC0187E892E00E94560E2A9734F487E8D8
:101CE00092E0DF91CF910C94560EDF91CF91089541
:101CF000CF93DF93843691056CF4EC018CE893E08C
:101D00000E94560E2A9734F48CE893E0DF91CF912D
:101D10000C94560EDF91CF9108958F929F92AF92BF
:101D2000BF92DF92EF92FF920F931F93CF93DF93B7
:101D3000EC017B012881222309F4BBC08A8180FF4A
:101D4000B8C088889988AA88BB8823FF21C0888D5D
:101D5000998DAA8DBB8D88199909AA09BB09823072
:101D60009105A105B10518F5009709F530E020E0CF
:101D7000A901481B590BCA01DF91CF911F910F9107
:101D8000FF90EF90DF90BF90AF909F908F9008955D
:101D900025FF0DC0EE81FF818681978135E0880F98
:101DA000991F3A95E1F78815990509F488C08401CF
:101DB0001170EE81FF81B501A40189E076956795E8
:101DC000579547958A95D1F725FF27C0848D958D26
:101DD000A68DB78D480F591F6A1F7B1F8E819F816B
:101DE00020E080960E94B407009709F462C0800F3B
:101DF000911FFC018081F701808388899989AA89D4
:101E0000BB890196A11DB11D888B998BAA8BBB8BB9
:101E100021E030E090E080E0ABCFD380D422011508
:101E2000110581F4D1100EC089288A288B2881F5EC
:101E300026FF29C0848D958DA68DB78D8C879D87B3
:101E4000AE87BF87EE81FF814C855D856E857F857E
:101E50004250510961097109848104C0440F551F22
:101E6000661F771F8A95D2F780899189A289B389E5
:101E7000840F951FA61FB71FAC01BD014D0D511D4D
:101E8000611D711DABCF8C8D9D8DAE8DBF8DD6CF5D
:101E90004C855D856E857F859E01245F3F4FCF0118
:101EA0000E94870987FD05C08111CCCF888180778A
:101EB00049F48981826089838FEF9FEF5DCF30E0A5
:101EC00020E0A8CF21E030E081E090E051CFEF9218
:101ED000FF920F931F93CF93DF931F92CDB7DEB77F
:101EE0007C01962FF70140895189628973898A01A3
:101EF0009B0185E036952795179507958A95D1F72B
:101F00000F7011F0911129C0BE016F5F7F4FC701A3
:101F10000E948D0E813051F090E080E00F90DF91B3
:101F2000CF911F910F91FF90EF900895F701808955
:101F30009189A289B3894F96A11DB11D808B918B88
:101F4000A28BB38BF701868197818796F0E20F9F72
:101F500090011124820F931FE1CF405E5F4F6F4FBE
:101F60007F4F408B518B628B738BECCF6F927F9244
:101F70008F929F92AF92BF92CF92DF92EF92FF9299
:101F80000F931F93CF93DF93CDB7DEB7A0970FB614
:101F9000F894DEBF0FBECDBF8C0119821A828091EA
:101FA000C70E882309F4F8C09091CA0E911156C04B
:101FB0008076E9F08FE2D8018C9311961C928824E8
:101FC0008394882DA0960FB6F894DEBF0FBECDBFC8
:101FD000DF91CF911F910F91FF90EF90DF90CF9005
:101FE000BF90AF909F908F907F906F90089560E02A
:101FF00087EC9EE00E942E0BFC01009709F4CEC0F6
:102000007C0148E090E020E05EE2D7018D917D0107
:102010008032E1F0283039F4B801690F711DDB011D
:102020005C939F5F40E1B70161507109DB013C9116
:102030008FEB830F8A3120F48485842309F0305E8E
:10204000B801690F711DDB013C939F5F2F5F2B303F
:10205000E1F6090F111DF8011082B1CF8091CF0E6A
:102060009091D00EA091D10EB091D20E6091CD0E74
:102070007091CE0E9E012F5F3F4F59010097A10531
:10208000B10509F06FC0C9010E94630D882309F4EE
:1020900083C0EE24E394F12CD12CC12C8091CA0E84
:1020A0008E1508F479C04091CB0E5091CC0E4E198C
:1020B0005F0970E060E085E0440F551F661F771FE1
:1020C0008A95D1F7C5010E946D0A882E882309F4EC
:1020D00063C060E0C5010E94670FFC01892B09F411
:1020E0005BC083858F3009F057C080818F71E81203
:1020F00053C0A8014C0D5D1D3F01960160E0D30166
:10210000653008F03FC011968D919C91009799F031
:1021100021313105D0F48F37910510F08FE390E035
:102120002F5F3F4FDA018D93AD016F5FB2E06B0E11
:10213000711C6D3021F72131310538F4808186FF23
:1021400004C0200F311FD9011C92D80150961C9257
:10215000BDE0CB0ED11C2FEFE21AF20A808186FF80
:102160009DCF2FCF2CE1F50111922A95E9F720E1BF
:10217000298321E02B8378876F838D8F9E8FAF8F8C
:10218000B8A387CF6B3020F414968D919C91BECF6D
:1021900016968D919C91BACFD8011C92812C11CFAB
:1021A000FF920F931F93CF93DF93EC018091C70EA3
:1021B000882339F080E0DF91CF911F910F91FF903C
:1021C00008959091A30E9077A9F3F62E209709F425
:1021D00048C0AE014150510970E060E085E0440F15
:1021E000551F661F771F8A95D1F783EA9EE00E94EC
:1021F0006D0A8823F9F260E083EA9EE00E94670F8F
:10220000FC01892BB9F283858F3091F580818F7124
:10221000813071F515850C2FC531D10508F004E129
:1022200060E083EA9EE00E94670F009719F2FC01CC
:102230002081253E09F4BECF222309F4BBCF2E32E4
:1022400009F4B8CF002321F00E945F0A8113B2CFB6
:102250002F2DAE0163EA7EE087EC9EE00E947D0DAB
:10226000AACF40E050E0BA0183EA9EE00E946D0AE6
:1022700000E010E0D5CF2F923F924F925F926F9285
:102280007F928F929F92AF92BF92CF92DF92EF9206
:10229000FF920F931F93CF93DF9300D000D000D015
:1022A0001F92CDB7DEB79E838D833B015A8349834E
:1022B000DC018C9183FFEBC012968C9181FFE7C00B
:1022C00083FDD8C0E981FA81AF0170E060E0ED8163
:1022D000FE8180899189A289B38980959095A09586
:1022E000B09584179507A607B70708F4D0C0C98032
:1022F000DA8022242A94322C21013C96FC83EB8341
:10230000ED81FE814089518962897389C114D104AC
:1023100009F47CC1868197818A019B0169E0369529
:102320002795179507956A95D1F7DC011396EC91DF
:102330000E237A01B1E0FB2201111FC0ED81FE8165
:102340004485558566857785E114F10409F097C1C8
:10235000411551056105710509F4A4C02B813C812B
:102360000E94870987FD93C0811107C08D819E81DE
:102370000E94940B882309F48AC0AD81BE81169611
:10238000ED91FC9117971C964D915D916D917C910B
:102390001F974250510961097109848104C0440F9B
:1023A000551F661F771F8A95D2F780899189A28968
:1023B000B389840F951FA61FB71FAC01BD01400F45
:1023C000511D611D711DE114F10429F4C114B2E025
:1023D000DB0608F088C080E092E08E199F09860134
:1023E0008C159D0508F48C01E114F104A1F4AD8174
:1023F000BE8150968D909D90AD90BC90539758960D
:102400008D919D910D90BC91A02D25E08816990687
:10241000AA06BB0608F421E0CF0180960E94B4070B
:102420000097A9F1A801B3018E0D9F1D0E94F241F2
:10243000E00EF11EE114B2E0FB0649F4ED81FE81ED
:102440008681978180960E947207882301F1ED8131
:10245000FE8180899189A289B389800F911FA11D76
:10246000B11D808B918BA28BB38B600E711EC01A35
:10247000D10A46CFAD81BE8158964D915D916D9147
:102480007C915B97CD010E946D0A81111BCFAD81BC
:10249000BE8111968C911197816011968C938FEF6C
:1024A0009FEFCDC0ED81FE81848D958DA68DB78D7A
:1024B0000097A105B10581F4CF010E94940B8823F8
:1024C00031F3ED81FE8184859585A685B785848F5E
:1024D000958FA68FB78F51CFED81FE818487958729
:1024E000A687B7874ACF83A194A1A5A1B6A1C1149D
:1024F00024E0D20608F470C09601232F33272695D6
:102500008280801A912C2815390508F44901481752
:1025100059076A077B0770F0880D991DA11DB11D31
:10252000481759076A077B0728F410A223A234A290
:1025300045A256A2AD81BE811696ED91FC91E08038
:10254000F180F7018581833039F099E0440F551F00
:10255000661F771F9A95D1F79A01AB0169E1C70110
:102560000E94BA06882351F083E3D7018C93C701F8
:102570000E942C06C7010E942C0689CF530110E04F
:1025800000E080ED97E008151905A1F00E94110602
:10259000811104C08BE5F7018083E9CFA5016CEFC1
:1025A000C7010E948506882311F30F5F1F4FFEEFBE
:1025B000BF1AE7CF0E941106882351F0102F002781
:1025C000110F8DEF0E940506C7010E942C063FCF18
:1025D00086E5D7018C93CECF481759076A077B074A
:1025E00029F410A223A234A245A256A2AD81BE8135
:1025F0001696ED91FC919301808191810E94FD06D8
:10260000882309F444CF00E012E021CFED81FE8160
:10261000808D918DA28DB38D84179507A607B7077E
:1026200038F48281408F518F628F738F84608283F0
:10263000ED81FE81828187FD1BC089819A812A9666
:102640000FB6F894DEBF0FBECDBFDF91CF911F91C3
:102650000F91FF90EF90DF90CF90BF90AF909F9041
:102660008F907F906F905F904F903F902F90089544
:102670008D819E810E944E0B8111DFCF08CFFC011E
:102680004250510961097109848104C0440F551FEA
:10269000661F771F8A95D2F780899189A289B389AD
:1026A000480F591F6A1F7B1F96CE04960C943B114E
:1026B000CF93DF931F92CDB7DEB7698341E050E03F
:1026C000BE016F5F7F4F04960E943B110F90DF9118
:1026D000CF910895EF92FF921F93CF93DF93D09104
:1026E0005C0DD13140F010E0812FDF91CF911F912F
:1026F000FF90EF900895E0915A0DF0915B0D80816D
:102700009181DC01ED91FC910084F185E02D19951A
:10271000892B49F38091FF0D8E7F8093FF0DE0910F
:102720005A0DF0915B0D80819181DC01ED91FC915E
:102730000284F385E02D1995C82F8D3FA1F2809179
:10274000640D9091650D009709F0F8C0C0935F0D7E
:1027500010915D0D812F0E94320C0E94400C882345
:1027600061F0C7FD0AC010935F0DC093600D81E05A
:1027700090E09093650D8093640DC0915F0D8C2F58
:102780000E94320C813F09F4A2C0C8F5803B39F0A9
:1027900048F4803921F0803A11F0803851F423E078
:1027A00030E097C0803D09F492C0D0F4803C09F439
:1027B0008EC08091FF0D81608093FF0DE091320DFE
:1027C000F091330D309709F019951092650D109224
:1027D000640D1092630D1092620D10925D0D83CF07
:1027E000803EE9F2803F29F720E830E03093630D26
:1027F0002093620D10925D0D80936F0D6EC0873F28
:1028000099F308F05DC0833F09F461C040F2863F50
:1028100081F680936C0D10926B0D10926D0D1092DD
:102820006E0D81E08093EF0D1092650D1092640D96
:102830001092630D1092620D80916C0D803939F405
:1028400080916E0D811103C080E880936C0D8091A2
:102850006C0D8058813638F480916B0DD81719F0C3
:1028600010E0D11103C00E945C0211E080916A0D5A
:10287000382F317080FF38CF982F9E7F09F434CFE6
:1028800090916C0D20E8290F213608F02BC1209182
:102890006B0DD21719F031E0D11130E086958230FE
:1028A00009F419C1833009F41AC1813009F01CCF31
:1028B00040916E0D60916D0D892F0E949A0C14CF7E
:1028C0008D3F08F4A6CF8E3F08F0A3CF72CF22E051
:1028D00030E03093630D2093620D2091640D3091B0
:1028E000650D4091620D5091630D415051092417BF
:1028F0003507E8F080936C0DCF70CF5FC0936B0D00
:102900008091600D80936D0D10926E0D81E090E0CE
:102910009093F10D8093F00D1092650D1092640D5F
:102920001092630D1092620D8093EF0D85CF2F5F93
:102930003F4F3093650D2093640DD5CEC7FF0CC07B
:10294000CD3F08F04BC0C83F08F04BC0C03F09F472
:1029500057C0C73F09F454C020915F0DFC01E05DF2
:10296000F24F203F19F0273F09F073C0C7AFE09046
:10297000620DF090630D9701215031098217930782
:1029800008F4A7C010915F0D103F19F0173F09F030
:1029900062C0C091EE0D80EF8093EE0D80936C0DC0
:1029A00080E880936D0D10926E0D10926B0D80E893
:1029B00090E09093F10D8093F00D81E08093EF0D06
:1029C0000E945C0287EF80936F0DC093700D82E0D0
:1029D00090E09093650D8093640D85CECE3F08F412
:1029E000BBCFC0936C0D10926D0D10926E0D1092B6
:1029F0006B0D81E090E09093F10D8093F00D94CFFA
:102A000020916F0D203F19F0273F09F0D2CE9C0195
:102A10002F5F3F4F805D924FFC01C7AF80EF8093E7
:102A20006C0D20936D0D30936E0D10926B0D3093E5
:102A3000F10D2093F00D81E08093EF0D1092650D64
:102A40001092640D1092630D1092620D10925D0D44
:102A5000F3CEC7A78CCF812F0E94320CC82F809352
:102A60006C0D0E94400C882349F1812F8F708F5F7D
:102A700080936B0D8091600D80936D0D8091610D41
:102A8000F3E0EF16F10409F080E080936E0D1092F0
:102A9000650D1092640D1092630D1092620D81E02D
:102AA0008093EF0DC03B39F060F4C03921F0C03A9B
:102AB00011F0C03859F610935D0DBECE10926B0D1B
:102AC000D9CFC03DC1F3C03EB1F3C03C09F0BECF89
:102AD000F2CF01967ECF332309F406CEE9CE311131
:102AE00003CEE6CEE0E1E90FE03108F0FDCDF0E005
:102AF0008827E258FA4E8F4F0C94DD419415E1156A
:102B0000C315B115741374138E1574138E157413C5
:102B10008E158E158E1574138E158E15692F8AE5F8
:102B20009DE00E948C0CE0CDE0906D0DF0906E0D5C
:102B300081E8E816F10418F090E8E92EF12CC0E3E2
:102B4000DDE0CE0180539D408E159F0508F0CCCD71
:102B50006FAD80915A0D90915B0D0E944F0C2196A4
:102B6000F0CFC0916D0D63EF80915A0D90915B0D88
:102B70000E944F0C6C2F6F7780915A0D90915B0DD6
:102B80000E944F0CB1CDC0916E0DA0E8CA9FE0012C
:102B9000112480916D0DC82B62EF80915A0D909198
:102BA0005B0D0E944F0C6C2F6F7780915A0D9091A6
:102BB0005B0D0E944F0CCC0FCD2FCC1FDD0BD195A0
:102BC000D9CF60916D0DB0E16B9FB001112460779A
:102BD000C0916E0DCF70C62B61EF80915A0D909110
:102BE0005B0D0E944F0C6C2FC7CFEF92FF920F939B
:102BF0001F93CF93DF93603471F5411126C010927B
:102C000040050AE315E0C6E0D0E00E946A13F8012F
:102C100085819E0121503109790181110AC02C2F33
:102C200040E0E701CC5CDA4F688180E80E94590CF3
:102C30001882E70101501109209739F7DF91CF91F0
:102C40001F910F91FF90EF9008950E946A1381E009
:102C500080934005F3CF613089F7463058F441E066
:102C600060E08AE4DF91CF911F910F91FF90EF9088
:102C70000C94860C41E066E4F4CF1F93CF93DF936E
:102C8000705EAB01440F452F441F550B5195D42F57
:102C9000DF77C62FCF77909157029350923078F418
:102CA00016E0212F4D2F6C2F80EE0E94590C0E94B0
:102CB0006A131150B1F7DF91CF911F910895282F1A
:102CC0004D2F6C2F80EEDF91CF911F910C94590CFA
:102CD000682F70E090E080E04AE00C94080ECF93FB
:102CE000DF93EC0160E08E810E94D20361E08E816F
:102CF0000E94D20360E08E810E94D2038BE891E0B3
:102D00000197F1F7DF91CF910895CF92DF92EF9283
:102D1000FF920F931F93CF93DF936C017C0187E0A9
:102D2000E80EF11CD0E0C0E0062F10E0B8010C2E38
:102D300002C0759567950A94E2F76170F701819179
:102D40007F010E94D2032196C430D10579F7C601D4
:102D5000DF91CF911F910F91FF90EF90DF90CF9077
:102D60000C946F16CF92DF92EF92FF920F931F9306
:102D7000CF93DF93EC01F62E642F8C810E94D20357
:102D80008D818F3F19F060E00E94D2030F2D10E07B
:102D90008F8584FF25C06E0187E0C80ED11CF12C01
:102DA000E12CB8010E2C02C0759567950A94E2F7E4
:102DB0006170F60181916F010E94D203FFEFEF1A5B
:102DC000FF0A88E0E816F10461F7CE01DF91CF91A8
:102DD0001F910F91FF90EF90DF90CF900C946F16A2
:102DE000B80184E0759567958A95E1F7CE010E9458
:102DF00085166F2DCE01DF91CF911F910F91FF901E
:102E0000EF90DF90CF900C94851640E0682F87E319
:102E100091E10C94B21690914A11691710F06FEF7E
:102E2000690FE62FF0E0E95CFE4E9489890F806817
:102E30000C94051781E00E9405178BE39FE1019731
:102E4000F1F70895CF93DF93823029F490914611E2
:102E500098609093461180934A1110924B1180E430
:102E600080934C1180E180934D1180E580934E1149
:102E700061E080913B110E94000480913C118F3FE2
:102E800019F061E00E94000461E080913D110E9410
:102E90000004C7E3D1E19E012753314180914611DF
:102EA00084FD0BC084E090E021962817390744F494
:102EB00061E08E810E940004EECF88E090E0F4CFC4
:102EC0008BE39DE00197F1F760E080913B110E9458
:102ED000D20360E080913D110E94D20380913C11A9
:102EE0008F3F19F060E00E94D2038091461184FD6B
:102EF00034C063E087E391E10E948516CBE4D6E419
:102F0000CE010197F1F763E087E391E10E94851616
:102F10002197F1F763E087E391E10E94851683E54D
:102F200092E00197F1F762E087E391E10E94851654
:102F30008091461180620E94051784E080934711BA
:102F40008CE00E9405170E941A1782E080934811B6
:102F500086E0DF91CF910C94051780620E940517DF
:102F60008BE496E40197F1F78091461180620E940C
:102F7000051783E592E00197F1F780914611806291
:102F80000E940517D5CF41E00E94B21681E090E083
:102F900008950F931F93CF93DF938B0128E0829FB7
:102FA000C001112480640E940517E801085F1F4FCB
:102FB000699187E391E10E94C317C017D107C1F758
:102FC000DF91CF911F910F910895EF92FF920F9390
:102FD0001F93CF93DF93162F042F90915702935096
:102FE000923008F051C090912E0D981357C084E391
:102FF000E82E85E0F82ED0E0C0E00E946A13F701C9
:1030000081917F0118133AC0809140059E01265C92
:103010003A4F7901882339F1F7011082EAE3F5E0AC
:1030200020E435E080E0919191118F5F2E173F07EA
:10303000D1F780933305811131C0809154028823E8
:1030400069F18091160D811129C060E00E940B1773
:1030500062E087E391E1DF91CF911F910F91FF90A3
:10306000EF900C94C3172C2F2F5F402F612F80E817
:103070000E94590CCC5CDA4F1882CECF2196C63014
:10308000D10509F0BACFCACF282F80E80E94590C89
:1030900060E080E00E940B1760E0DBCFDF91CF9112
:1030A0001F910F91FF90EF900895CF92DF92EF92D2
:1030B000FF9297FF18C06B017C0141E06DE287E34E
:1030C00091E10E94B21666277727CB016C197D0922
:1030D0008E099F094AE00E94080E0196FF90EF902A
:1030E000DF90CF9008954AE0FF90EF90DF90CF906F
:1030F0000C94080E0F931F93CF93DF938C01D0E0B5
:10310000C0E0F801EC0FFD1F6491662339F041E047
:1031100087E391E10E94B2162196F3CFCE01DF91B1
:10312000CF911F910F910895CF93DF93E0915502B6
:10313000E150ED3088F5C62FD82FF0E08827EC5508
:10314000F74E8F4F0C94DD41B118131933195319F1
:1031500073199319B319D319F519151A351A551A84
:10316000751A61E081E00E940B178091130265E0FF
:103170008134A8F087E391E10E94C31766E087E3FA
:1031800091E10E94C31763E087E391E10E94C317B6
:10319000D11128C0C0931302DF91CF91089587E326
:1031A00091E10E94C31766E087E391E10E94C31793
:1031B00064E087E391E10E94C31740915602242FF7
:1031C0002150330BC90122E3289FF001299FF00D04
:1031D0001124EA5FFB4F8FE784A76FE78DE40E941D
:1031E000860CD6CF40915602242F2150330BC901B3
:1031F00022E3289FF001299FF00D1124EA5FFB4F85
:10320000D13039F4C0836C2F8EE0DF91CF910C94D4
:10321000860CD23021F4C1836C2F8FE0F6CFC4A787
:103220006C2F8DE4F2CF40915602242F2150330BA6
:10323000C90122E3289FF001299FF00D1124EA5FC4
:10324000FB4FD11103C0648380E1DFCFD13019F48B
:10325000608F82E1DACFD23019F4668781E1D5CF71
:1032600062A383E1D2CF40915602242F2150330B29
:10327000C90122E3289FF001299FF00D1124EA5F84
:10328000FB4FD11103C0628384E1BFCFD13019F469
:10329000668B86E1BACFD23019F4648785E1B5CF69
:1032A00060A387E1B2CF40915602242F2150330B07
:1032B000C90122E3289FF001299FF00D1124EA5F44
:1032C000FB4FD11103C0638388E19FCFD13019F444
:1032D000678B8AE19ACFD23019F4658789E195CF5F
:1032E00061A38BE192CF40915602242F2150330BE2
:1032F000C90122E3289FF001299FF00D1124EA5F04
:10330000FB4FD11103C0658387E27FCFD13019F421
:10331000618F89E27ACFD23019F4678788E275CF5E
:1033200063A38AE272CF40915602242F2150330BBF
:10333000C90122E3289FF001299FF00D1124EA5FC3
:10334000FB4FD11103C066838BE25FCFD13019F4FC
:10335000628F8DE25ACFD23019F4608B8CE255CF58
:1033600064A38EE252CF40915602242F2150330B9A
:10337000C90122E3289FF001299FF00D1124EA5F83
:10338000FB4FD11103C067838FE23FCFD13019F4D7
:10339000638F81E33ACFD23019F4618B80E335CF6C
:1033A00065A382E332CF409156026FE76C1B242F56
:1033B0002150330BC90122E3289FF001299FF00D12
:1033C0001124EA5FFB4FD11103C0628787E31DCF51
:1033D000D13019F4668F89E318CFD23019F4648B99
:1033E00088E313CF60A78AE310CF40915602242FC1
:1033F0002150330BC90122E3289FF001299FF00DD2
:103400001124EA5FFB4FD11103C0608783E3FDCE37
:10341000D13019F4648F85E3F8CED23019F4628B81
:1034200084E3F3CE66A386E3F0CE40915602242FC8
:103430002150330BC90122E3289FF001299FF00D91
:103440001124EA5FFB4FD11103C061878BE3DDCE0E
:10345000D13019F4658F8DE3D8CED23019F4638B57
:103460008CE3D3CE67A38EE3D0CE40915602242FB7
:103470002150330BC90122E3289FF001299FF00D51
:103480001124EA5FFB4FD11103C063878AE5BDCEEB
:10349000D13019F4678F8CE5B8CED23019F4658B32
:1034A0008BE5B3CE61A78DE5B0CE40915602242FB7
:1034B0002150330BC90122E3289FF001299FF00D11
:1034C0001124EA5FFB4FD11103C065A786E49DCEAE
:1034D000D13019F467A788E498CED23019F466A7E2
:1034E00087E493CE60AB89E490CE61E081E00E94F6
:1034F0000B178CE293E00E947A18D13031F4C0931C
:10350000120241E06C2F81E080CED23091F44091E4
:103510005602242F2150330BC90122E3289FF001CA
:10352000299FF00D1124EA5FFB4FC2A76C2F8BE49B
:103530006CCED33009F030CE40915602242F21506A
:10354000330BC90122E3289FF001299FF00D1124BC
:10355000EA5FFB4FC3A76C2F8CE457CE7F928F920C
:103560009F92AF92BF92CF92DF92EF92FF920F9312
:103570001F93CF93DF9300D01F92CDB7DEB70E9489
:103580006A1388E30E943C0423E0959587952A9569
:10359000E1F7898389E30E943C0433E095958795A0
:1035A0003A95E1F78A838AE30E943C0443E09595CB
:1035B00087954A95E1F78B838BE30E943C0453E0A7
:1035C000959587955A95E1F78C8364E4C62E65E05E
:1035D000D62ECE0101965C017C0101E07FE7872EAB
:1035E000F60181916F01F70110818E5F811B85309B
:1035F00008F492C00E946A1361E0802F0E940B17AA
:10360000133010F4F7011082F70180818D3708F034
:103610008082F7011081F601319710838091550265
:10362000813009F05EC0C7018A199B09813091057C
:10363000D1F586E892E00E94560E612F62956F7078
:1036400070E090E080E00E944B3F20E030E040E0FE
:103650005FE30E94353E0E94133F0E9455187E2C66
:103660007A1880915702823009F04AC0612F872D65
:103670000E949418FFEFEF1AFF0A0C5F013109F066
:10368000AFCF0F900F900F900F90DF91CF911F91C0
:103690000F91FF90EF90DF90CF90BF90AF909F90F1
:1036A0008F907F900895039719F5103228F489E8D8
:1036B00092E00E94560ED3CF80EE810F803218F434
:1036C0008DE892E0F6CF80EC810F803218F481E92A
:1036D00092E0EFCF80EA810F803208F685E992E030
:1036E000E8CF8C3029F4103410F389E992E0E1CF6F
:1036F000812F90E00E94630E812F0E946816AFCF49
:1037000086E0982E90925602612F872D0E94941881
:103710009A949110F7CFAECF61E0802F0E940B17E3
:10372000A9CFCF93DF930E941A1760E080E00E9438
:103730000B1780915702823039F560E087E391E101
:103740000E94C317809156020E9468168AE293E095
:103750000E947A18E0915502E150ED3008F0ECC477
:10376000F0E08827E954F44E8F4F0C94DD41CC1BD8
:10377000621CC51C201D7B1DD61D311E8C1EE71E24
:10378000421F9D1FF81F622062E087E391E10E94C3
:10379000C31787E293E0DCCF89E193E00E947A18B7
:1037A0008091130261E0813408F468C081E00E94D6
:1037B0000B1765E087E391E10E94C31766E087E39A
:1037C00091E10E94C31763E087E391E10E94C31770
:1037D00061E085E00E940B17809156028150990BA1
:1037E000D2E3D89FF001D99FF00D1124EA5FFB4F7F
:1037F000C08186E892E00E94560EC295CF706C2F71
:1038000070E090E080E00E944B3F20E030E040E03C
:103810005FE30E94353E0E94133F0E94551861E00D
:1038200089E00E940B17809156028150990BD89F16
:10383000F001D99FF00D1124EA5FFB4FC1818C2F5D
:1038400090E00E94630E8C2F0E94681661E08DE06C
:103850000E940B17809156028150990BD89FF0015E
:10386000D99FF00D1124EA5FFB4F84A58032A8F4A4
:1038700089E892E0DF91CF910C94560E81E00E948E
:103880000B1765E087E391E10E94C31766E087E3C9
:1038900091E10E94C31764E097CF90EE980F9032A9
:1038A00018F48DE892E0E6CF90EC980F903218F47F
:1038B00081E992E0DFCF8056803208F03DC485E98F
:1038C00092E0D8CF8CE093E00E947A1861E081E02A
:1038D0000E940B17809156028150990BC2E3C89F3A
:1038E000F001C99FF00D1124EA5FFB4FD4818D2FA9
:1038F00090E00E94630E8D2F0E94681661E085E0C3
:103900000E940B17809156028150990BC89FF001BD
:10391000C99FF00D1124EA5FFB4FD08D8D2F90E0F1
:103920000E94630E8D2F0E94681661E089E00E945C
:103930000B17809156028150990BC89FF001C99FC7
:10394000F00D1124EA5FFB4FD6858D2F90E00E9489
:10395000630E8D2F0E94681661E08DE00E940B17A8
:10396000809156028150990BC89FF001C99FF00DBC
:103970001124EA5FFB4FC2A18C2F90E00E94630EDE
:103980008C2FDF91CF910C9468168EEF92E00E94FD
:103990007A1861E081E00E940B17809156028150F5
:1039A000990BC2E3C89FF001C99FF00D1124EA5F93
:1039B000FB4FD2818D2F90E00E94630E8D2F0E94CD
:1039C000681661E085E00E940B17809156028150D5
:1039D000990BC89FF001C99FF00D1124EA5FFB4FBE
:1039E000D6898D2F90E00E94630E8D2F0E9468165D
:1039F00061E089E00E940B17809156028150990B7B
:103A0000C89FF001C99FF00D1124EA5FFB4FD485D8
:103A10008D2F90E00E94630E8D2F0E94681661E04A
:103A20008DE00E940B17809156028150990BC89F20
:103A3000F001C99FF00D1124EA5FFB4FC0A19CCF9C
:103A400080EF92E00E947A1861E081E00E940B17FB
:103A5000809156028150990BC2E3C89FF001C99F23
:103A6000F00D1124EA5FFB4FD3818D2F90E00E946F
:103A7000630E8D2F0E94681661E085E00E940B178F
:103A8000809156028150990BC89FF001C99FF00D9B
:103A90001124EA5FFB4FD7898D2F90E00E94630EBF
:103AA0008D2F0E94681661E089E00E940B178091BB
:103AB00056028150990BC89FF001C99FF00D112447
:103AC000EA5FFB4FD5858D2F90E00E94630E8D2F0E
:103AD0000E94681661E08DE00E940B1780915602EB
:103AE0008150990BC89FF001C99FF00D1124EA5F26
:103AF000FB4FC1A141CF82EE92E00E947A1861E0B3
:103B000081E00E940B17809156028150990BC2E30D
:103B1000C89FF001C99FF00D1124EA5FFB4FD581CA
:103B20008D2F90E00E94630E8D2F0E94681661E039
:103B300085E00E940B17809156028150990BC89F17
:103B4000F001C99FF00D1124EA5FFB4FD18D8D2F3D
:103B500090E00E94630E8D2F0E94681661E089E05C
:103B60000E940B17809156028150990BC89FF0015B
:103B7000C99FF00D1124EA5FFB4FD7858D2F90E090
:103B80000E94630E8D2F0E94681661E08DE00E94F6
:103B90000B17809156028150990BC89FF001C99F65
:103BA000F00D1124EA5FFB4FC3A1E6CE88ED92E051
:103BB0000E947A1861E081E00E940B178091560202
:103BC0008150990BC2E3C89FF001C99FF00D1124E9
:103BD000EA5FFB4FD6818D2F90E00E94630E8D2F00
:103BE0000E94681661E085E00E940B1780915602E2
:103BF0008150990BC89FF001C99FF00D1124EA5F15
:103C0000FB4FD28D8D2F90E00E94630E8D2F0E946E
:103C1000681661E089E00E940B178091560281507E
:103C2000990BC89FF001C99FF00D1124EA5FFB4F6B
:103C3000D0898D2F90E00E94630E8D2F0E94681610
:103C400061E08DE00E940B17809156028150990B24
:103C5000C89FF001C99FF00D1124EA5FFB4FC4A17A
:103C60008BCE8DEC92E00E947A1861E081E00E9498
:103C70000B17809156028150990BC2E3C89FF00147
:103C8000C99FF00D1124EA5FFB4FD7818D2F90E083
:103C90000E94630E8D2F0E94681661E085E00E94ED
:103CA0000B17809156028150990BC89FF001C99F54
:103CB000F00D1124EA5FFB4FD38D8D2F90E00E9411
:103CC000630E8D2F0E94681661E089E00E940B1739
:103CD000809156028150990BC89FF001C99FF00D49
:103CE0001124EA5FFB4FD1898D2F90E00E94630E73
:103CF0008D2F0E94681661E08DE00E940B17809165
:103D000056028150990BC89FF001C99FF00D1124F4
:103D1000EA5FFB4FC5A130CE82EC92E00E947A1898
:103D200061E081E00E940B17809156028150990B4F
:103D3000C2E3C89FF001C99FF00D1124EA5FFB4F59
:103D4000D2858D2F90E00E94630E8D2F0E94681601
:103D500061E085E00E940B17809156028150990B1B
:103D6000C89FF001C99FF00D1124EA5FFB4FD68D6B
:103D70008D2F90E00E94630E8D2F0E94681661E0E7
:103D800089E00E940B17809156028150990BC89FC1
:103D9000F001C99FF00D1124EA5FFB4FD4898D2FEC
:103DA00090E00E94630E8D2F0E94681661E08DE006
:103DB0000E940B17809156028150990BC89FF00109
:103DC000C99FF00D1124EA5FFB4FC0A5D5CD87EB4D
:103DD00092E00E947A1861E081E00E940B178091C6
:103DE00056028150990BC2E3C89FF001C99FF00DA4
:103DF0001124EA5FFB4FD0858D2F90E00E94630E67
:103E00008D2F0E94681661E085E00E940B1780915B
:103E100056028150990BC89FF001C99FF00D1124E3
:103E2000EA5FFB4FD48D8D2F90E00E94630E8D2FA3
:103E30000E94681661E089E00E940B17809156028B
:103E40008150990BC89FF001C99FF00D1124EA5FC2
:103E5000FB4FD2898D2F90E00E94630E8D2F0E9420
:103E6000681661E08DE00E940B1780915602815028
:103E7000990BC89FF001C99FF00D1124EA5FFB4F19
:103E8000C6A17ACD8CEA92E00E947A1861E081E0C6
:103E90000E940B17809156028150990BC2E3C89F74
:103EA000F001C99FF00D1124EA5FFB4FD1858D2FE2
:103EB00090E00E94630E8D2F0E94681661E085E0FD
:103EC0000E940B17809156028150990BC89FF001F8
:103ED000C99FF00D1124EA5FFB4FD58D8D2F90E027
:103EE0000E94630E8D2F0E94681661E089E00E9497
:103EF0000B17809156028150990BC89FF001C99F02
:103F0000F00D1124EA5FFB4FD3898D2F90E00E94C2
:103F1000630E8D2F0E94681661E08DE00E940B17E2
:103F2000809156028150990BC89FF001C99FF00DF6
:103F30001124EA5FFB4FC7A11FCD82EA92E00E94E5
:103F40007A1861E081E00E940B178091560281503F
:103F5000990BC2E3C89FF001C99FF00D1124EA5FDD
:103F6000FB4FD3858D2F90E00E94630E8D2F0E9412
:103F7000681661E085E00E940B178091560281501F
:103F8000990BC89FF001C99FF00D1124EA5FFB4F08
:103F9000D78D8D2F90E00E94630E8D2F0E946816A2
:103FA00061E089E00E940B17809156028150990BC5
:103FB000C89FF001C99FF00D1124EA5FFB4FD5891E
:103FC0008D2F90E00E94630E8D2F0E94681661E095
:103FD0008DE00E940B17809156028150990BC89F6B
:103FE000F001C99FF00D1124EA5FFB4FC1A5C4CCBD
:103FF00087E992E00E947A1861E081E00E940B1745
:10400000809156028150990B22E3289FF001299F4D
:10401000F00D1124EA5FFB4F85A5803408F049C0FC
:1040200089E892E00E94560E61E085E00E940B173D
:10403000809156028150990B22E3289FF001299F1D
:10404000F00D1124EA5FFB4F87A58034A8F589E8BD
:1040500092E00E94560E61E089E00E940B17809169
:1040600056028150990B22E3289FF001299FF00D01
:104070001124EA5FFB4F86A5803408F589E892E0B9
:104080000E94560E61E08DE00E940B17809156024F
:104090008150990B22E3289FF001299FF00D1124F4
:1040A000EA5FFB4F80A9803408F4E2CB89E992E013
:1040B000E1CB89E992E0B6CF89E992E0CACF89E9FC
:1040C00092E0DECF8AE892E00E947A1861E085E013
:1040D0000E940B17C09112028C2F90E00E94630E79
:1040E0008C2F0E94681661E089E00E940B17809176
:1040F00056028150990BC2E3C89FF001C99FF00D91
:104100001124EA5FFB4FD2A58D2F90E00E94630E31
:104110008D2F0E94681661E08DE00E940B17809140
:1041200056028150990BC89FF001C99FF00D1124D0
:10413000EA5FFB4FC3A520CCDF91CF910895CF93C9
:10414000DF93CDB7DEB762970FB6F894DEBF0FBE30
:10415000CDBFE0915602F0E0E45EF24FE081EE0F59
:10416000FF0BE85BFA4F60E0808191810E94D010E4
:1041700081110DC060E00E940B178DE992E00E9452
:10418000560E68E873E180E090E00E947E04CE0164
:1041900001960E94B60F1A8A0E941A1760E080E00A
:1041A0000E940B1780915702833009F057C062E0DC
:1041B00087E391E10E94C31787E892E00E94560EC0
:1041C00087E892E00E94560E61E087E391E10E9449
:1041D000C317E0915602F0E0E45EF24F8081082EB2
:1041E000000C990B01960E94780EE0915602F0E0C7
:1041F000E45EF24F6081062E000C770B6F5F7F4FFD
:10420000072E000C880B990B0E9455188DEA92E03E
:104210000E94560E80911B0D90911C0D0E94780EED
:1042200060911B0D70911C0D90E080E04AE00E94AF
:10423000080E61E080E00E940B17CE0101960E94FB
:10424000560E87EC9EE00E948B0B62960FB6F89498
:10425000DEBF0FBECDBFDF91CF91089560E087E351
:1042600091E10E94C317809156020E946816A8CF60
:10427000CF93DF93209157022130B9F4019781F455
:1042800082E080935702C1E0D0915702D23009F406
:1042900083C018F5D13009F462C0DF91CF91089541
:1042A00083E080935702C0E0EFCF223031F40197D2
:1042B00011F481E0E6CF84E0F4CF233031F40197AC
:1042C00011F484E0DECF81E0ECCF243061F7019778
:1042D00011F483E0D6CF82E0E4CFD33009F4A2C05A
:1042E000D430D9F688E30E943C0423E09595879565
:1042F0002A95E1F78093440589E30E943C0433E06A
:10430000959587953A95E1F7809345058AE30E9454
:104310003C0443E0959587954A95E1F780934605DF
:104320008BE30E943C0453E0959587955A95E1F7FD
:10433000809347050E94B0046093170D7093180D89
:104340008093190D90931A0D0E941A17C11166C01F
:1043500060E080E00E940B178AED92E059C00E9455
:10436000B0046093170D7093180D8093190D9093FE
:104370001A0D0E941A17C1110BC060E080E00E9464
:104380000B178FEA92E00E94560ED093160D85CF40
:10439000DF91CF910C949F2088E30E943C0463E05E
:1043A000959587956A95E1F78093440589E30E9486
:1043B0003C0473E0959587957A95E1F780934505E0
:1043C0008AE30E943C04E3E095958795EA95E1F73E
:1043D000809346058BE30E943C04F3E09595879516
:1043E000FA95E1F7809347050E94B0046093170D9A
:1043F0007093180D8093190D90931A0D0E941A173F
:10440000C1110CC060E080E00E940B178DEB92E0C0
:104410000E94560E81E08093160D3FCFDF91CF9121
:104420000C94911B0E94B0046093170D7093180DAB
:104430008093190D90931A0D0E941A17C111A8CFDD
:1044400060E080E00E940B178CEC92E0E1CF2F92AD
:104450003F924F925F926F927F928F929F92AF9214
:10446000BF92CF92DF92EF92FF920F931F93CF9361
:10447000DF93CDB7DEB7C258D1090FB6F894DEBFCF
:104480000FBECDBFE0915602F0E0E45EF24FE08156
:10449000EE0FFF0BE85BFA4F60E0808191810E9494
:1044A000D01081110AC00E941A1760E080E00E94BB
:1044B0000B1789EE92E00E94560E8E010F5F1F4F80
:1044C0008091C70E83FF32C08091DF0E9091E00E85
:1044D000A091E10EB091E20E4091D70E5091D80E0E
:1044E0006091D90E7091DA0E841B950BA60BB70B59
:1044F000811520E89207A105B10520F08FEF9FE715
:10450000A0E0B0E0892BC9F0BE016B5A7F4F87EC69
:104510009EE00E948D0E019769F466968FAD6697B6
:1045200090E0F801819391938F01CACF80E090E0F1
:10453000DC01DECF8FEF9FEFF4CF10915602298080
:10454000229480EF2822412F622D8EE00E94860C5B
:104550003B80329490EF3922412F632D8FE00E94EF
:10456000860C8D81880F880F880FA8968FAFA8972B
:10457000412F682F84E10E94860C898D880F880F57
:10458000880FA9968FAFA997412F682F85E10E94C8
:10459000860C8DA5880F880F880FAA968FAFAA97D3
:1045A000412F682F86E10E94860C22968FAD2297BC
:1045B000880F880F880FAB968FAFAB97412F682F6E
:1045C00087E10E94860C8F818295880F807EAC9651
:1045D0008FAFAC97412F682F88E10E94860C8B8D9E
:1045E0008295880F807EAD968FAFAD97412F682F53
:1045F00089E10E94860C8FA58295880F807EAE96F9
:104600008FAFAE97412F682F8AE10E94860C2496C7
:104610008FAD24978295880F807EAF968FAFAF972E
:10462000412F682F8BE10E94860C0FE78985F02FC0
:10463000F81BE096FFAFE097412F6F2F80E10E94BB
:10464000860C8D8D202F281BE1962FAFE197412FEF
:10465000622F81E10E94860C89A9302F381BE296D7
:104660003FAFE297412F632F82E10E94860C26968E
:104670008FAD2697902F981BE3969FAFE397412F1E
:10468000692F83E10E94860C8B858295880F807E3E
:10469000E4968FAFE497412F682F87E20E94860C43
:1046A0008F8D8295880F807EE5968FAFE597412F9D
:1046B000682F88E20E94860C8BA98295880F807EE5
:1046C000E6968FAFE697412F682F89E20E94860C0D
:1046D00028968FAD28978295880F807EE7968FAFBA
:1046E000E797412F682F8AE20E94860C8D85880FFC
:1046F000880FE8968FAFE897412F682F8BE20E94D2
:10470000860C89A1880F880FE9968FAFE997412F12
:10471000682F8CE20E94860C8DA9880F880FEA967C
:104720008FAFEA97412F682F8DE20E94860C2A9660
:104730008FAD2A97880F880FEB968FAFEB97412F9D
:10474000682F8EE20E94860C8F85880F880FEC966A
:104750008FAFEC97412F682F8FE20E94860C8BA1C0
:10476000880F880FED968FAFED97412F682F80E36C
:104770000E94860C8FA9880F880FEE968FAFEE9758
:10478000412F682F81E30E94860C2C968FAD2C97C9
:10479000880F880FEF968FAFEF97412F682F82E336
:1047A0000E94860C8D89880F880F880FC158DF4FB3
:1047B0008883CF57D040412F682F87E30E94860C13
:1047C00089A5880F880F880FC058DF4F8883C0588D
:1047D000D040412F682F88E30E94860C8DAD880F52
:1047E000880F880FCF57DF4F8883C158D040412FA3
:1047F000682F89E30E94860C62968FAD6297880FBE
:10480000880F880FCE57DF4F8883C258D040412F82
:10481000682F8AE30E94860C4988440C440C440C9F
:10482000412F642D83E30E94860C5DA0550C550C2E
:10483000550C412F652D84E30E94860C69AC660CF3
:10484000660C660C412F662D85E30E94860C2E9621
:104850007FAC2E97770C770C770C412F672D86E372
:104860000E94860C8B88880C880C880C412F682D40
:104870008BE30E94860C9FA0990C990C990C412FF8
:10488000692D8CE30E94860CABACAA0CAA0CAA0C76
:10489000412F6A2D8DE30E94860C6096BFAC609715
:1048A000BB0CBB0CBB0C412F6B2D8EE30E94860C06
:1048B000CF88CC0CCC0CCC0C412F6C2D8AE50E94FF
:1048C000860CDBA4DD0CDD0CDD0C412F6D2D8BE5A2
:1048D0000E94860CEFACEE0CEE0CEE0C412F6E2D10
:1048E0008CE50E94860C6496FFAC6497FF0CFF0C6D
:1048F000FF0C412F6F2D8DE50E94860C412F6AE53C
:104900008BE40E94860C412F6AE58CE40E94860CA1
:10491000412F6FE78DE40E94860C412F60E086E412
:104920000E94860C412F60E087E40E94860C412F94
:1049300060E088E40E94860C412F60E089E40E94D8
:10494000860C10915602E12FE150FF0BCF0122E3BC
:10495000289FF001299FF00D1124EA5FFB4F208270
:104960003182A8962FADA8972283A9963FADA9972B
:104970003487AA968FADAA97868BAB969FADAB97DF
:1049800090A3AC962FADAC972383AD963FADAD977A
:104990003587AE968FADAE97878BAF969FADAF97AD
:1049A00091A3E0962FADE0972483E1963FADE19788
:1049B0003687E2968FADE297808FE3969FADE397BF
:1049C00092A3E4962FADE4972583E5963FADE59756
:1049D0003787E6968FADE697818FE7969FADE7978D
:1049E00093A3E8962FADE8972683E9963FADE99724
:1049F000308BEA968FADEA97828FEB969FADEB975F
:104A000094A3EC962FADEC972783ED963FADED97F1
:104A1000318BEE968FADEE97838FEF969FADEF972C
:104A200095A3802FC158DF4F2881CF57D040821BDC
:104A30008287802FC058DF4F3881C058D040831BF9
:104A4000848B802FCF57DF4F9881C158D040891B6E
:104A5000868F802FCE57DF4F2881C258D040821BCF
:104A600080A74086528A648E76A28186938AA58E1C
:104A7000B7A2C386D58AE78EF1A68AE582A783A767
:104A800004A715A616A617A610AA11AACE018B5A1E
:104A90009F4F0E94B60FA7961FAEA7970E941A17A6
:104AA00060E080E00E940B1780915702833009F08C
:104AB00069C062E087E391E10E94C31787E892E052
:104AC0000E94560E87E892E00E94560E61E087E34E
:104AD00091E10E94C317E0915602F0E0E45EF24FCC
:104AE0008081082E000C990B01960E94780EE091AF
:104AF0005602F0E0E45EF24F6081062E000C770B68
:104B00006F5F7F4F072E000C880B990B0E94551882
:104B10008DEA92E00E94560E80911B0D90911C0D23
:104B20000E94780E60911B0D70911C0D90E080E04A
:104B30004AE00E94080E61E080E00E940B17CE015F
:104B40008B5A9F4F0E94560E87EC9EE00E948B0B63
:104B5000CE57DF4F0FB6F894DEBF0FBECDBFDF914B
:104B6000CF911F910F91FF90EF90DF90CF90BF906A
:104B7000AF909F908F907F906F905F904F903F90FD
:104B80002F90089560E087E391E10E94C317812F81
:104B90000E94681697CF2F923F924F925F926F922A
:104BA0007F928F929F92AF92BF92CF92DF92EF92BD
:104BB000FF920F931F93CF93DF9300D000D000D0CC
:104BC0001F921F92CDB7DEB78C017A836983FA01F9
:104BD000672BD1F480E02B960FB6F894DEBF0FBEA2
:104BE000CDBFDF91CF911F910F91FF90EF90DF909C
:104BF000CF90BF90AF909F908F907F906F905F907D
:104C00004F903F902F900895A981BA818C91807721
:104C100009F3D8018C918111DDCF21803280808110
:104C20008370DD24D394882349F0C1010C966DE094
:104C300070E00E94C941DD24D394D60E2C837F01FD
:104C4000E981FA81F987E8871F830E8340E050E00D
:104C5000BA01CF010E946D0A1B82812C912CC12CBC
:104C600010E000E01D825701F6E0AF0EB11CA885F0
:104C7000B98550964D905D906D907C90539745E02E
:104C800076946794579447944A95D1F75A8249820B
:104C900061E0CD010E94670F009709F08BC0E885A5
:104CA000F9858181811196CFEC81E4FF93CFE031CA
:104CB00009F490CF112319F0FB81F9838A821D1525
:104CC00008F035C160E0888599850E94670F892BBF
:104CD00009F009C1A885B98511968C91412C32E063
:104CE000532E811177CFE885F985808185FD72CFBC
:104CF00080899189A289B38981159E4FAF41B10501
:104D000008F068CF888599850E94940B882309F460
:104D100061CFA885B9851696ED91FC9117971C96E1
:104D20008D909D90AD90BC901F97B2E08B1A91082A
:104D3000A108B108848104C0880C991CAA1CBB1C62
:104D40008A95D2F780899189A289B389880E991EA4
:104D5000AA1EBB1E25E0B501A401CF0180960E94CA
:104D6000B4073C01009709F435CFFC019201119280
:104D700021503040E1F701E0A885B98516960D90E5
:104D8000BC91A02DBB87AA8712968C911297081709
:104D900008F0ABC09301B501A401400F511D611D86
:104DA000711D8D919C910E94FD06882309F412CFFC
:104DB0000F5FE2CFDC012C91253E11F021110EC0D6
:104DC000111102C04B82852C1D1508F41F5F222390
:104DD00009F46ACF253E21F400E049CF1D1548F1C2
:104DE0002E32D1F3FC0133853F3009F058C0011158
:104DF00022C026FF3CCF022F0F719584C02EEC2DD0
:104E0000E150FF0BAF01FDE0F49F9001F59F300DE5
:104E100011242215330500F7FC01712C64E067159D
:104E200088F08181928122163306A9F4892BA1F69C
:104E30001ECF10E0D5CFCA942C11CECF25852915D1
:104E4000F1F2CACF8AE0871518F084819581EBCF03
:104E500086819781E8CF8F3F910511F008F0BCCF94
:104E60004FEB480F4A3108F4805EB9016F5F7F4F06
:104E7000D70113964D915C91240F351FD9019C9158
:104E80002FEB290F2A3108F4905E9813A5CF739465
:104E90003296BDE07B1609F4EACE9B01BFCF33FD0D
:104EA0009BCF002389F0E1E0CE1294CE0E945F0AEE
:104EB000891190CE2C8149815A81688579858E81AE
:104EC0009F810E947D0D87CE4BE050E0B5010E948E
:104ED000E541892B09F0CBCED7018C9180FFEACF39
:104EE000B1E0BD83C4CE1F5FEACE90E0B0E0A0E0A9
:104EF00029E0880F991FAA1FBB1F2A95D1F7E885C3
:104F0000F9854089518962897389840F951FA61F8D
:104F1000B71F808B918BA28BB38BAA85BB85129612
:104F20008C91823020F4105F1D1508F4DCCEBD8119
:104F3000BB2309F45AC0F701C58002E010E08EE7F8
:104F4000982E5701F6E0AF0EB11CD70111962D91A6
:104F50003C911297C801820F931F1396ED91FC911B
:104F60002E0F3F1F2E173F0779F0AC01B5E0440F1D
:104F7000551FBA95E1F7840F951F4191042E000C3F
:104F8000550B84279527EECFB3E0BC1510F4A3E0B2
:104F9000CA2E34E03C0D282F2F702A3008F08FC025
:104FA000205DF701E30FF11D2683F4E096958795C8
:104FB000FA95E1F73150C31670F3F701EC0DF11DCE
:104FC000968240E050E0BA01888599850E946D0A7A
:104FD00061E0888599850E94670F009709F071C08C
:104FE000E885F98581818111F5CDE981FA81AF01EB
:104FF00070E060E0E5E0440F551F661F771FEA95FB
:10500000D1F7888599850E946D0A882309F4E2CD3D
:105010000FEF0D0D102F3FE0932E6701F6E0CF0E3E
:10502000D11C4DE0842E112309F477C060E08885FF
:1050300099850E94670F5C01892B09F4CBCDA88567
:10504000B9851696ED91FC9180A1816080A3712EA7
:10505000101302C0689476F8F50170829386148666
:10506000C6010E945F0AD5011D968C931D975B9621
:105070001C921E925A97F70123813481872D8F71DC
:105080008150990B889EA001899E500D1124F50135
:1050900060E04215530570F5D901A40FB51F8C913E
:1050A000082E000C990B653080F5928381836F5F29
:1050B0004F5F5F4F32966D3061F71150B4CF295C6E
:1050C00070CFDC012C91222309F48FCF1B962C91F9
:1050D00023FD7ECF4BE050E0BC01C5010E94E541BD
:1050E000892B09F075CF0F5F1F4F0436110509F0AA
:1050F0002CCF70CD81E090E02416350611F490E0BD
:1051000080E0919581959109CECF6B3018F495830D
:105110008483CDCF97838683CACFA885B9855096DF
:105120008D909D90AD90BC90539760E0CD010E9412
:10513000670F009709F44ECD25E0B694A794979495
:1051400087942A95D1F79A82898220E2FC011192F4
:105150002A95E9F7F70136962BE0DC0101900D92D4
:105160002A95E1F7D7012C912871FC01248721E2CF
:1051700038E2318B208B40E058E057874687338BED
:10518000228B318F208F578B468BA885B985169639
:10519000ED91FC9180A1816080A38CCE2F923F92F3
:1051A0004F925F926F927F928F929F92AF92BF9237
:1051B000CF92DF92EF92FF920F931F93CF93DF93E3
:1051C000CDB7DEB7E7970FB6F894DEBF0FBECDBF01
:1051D0007C018A012FAB19821A82DC018C91882311
:1051E000D1F080E0E7960FB6F894DEBF0FBECDBFDA
:1051F000DF91CF911F910F91FF90EF90DF90CF90B3
:10520000BF90AF909F908F907F906F905F904F90E6
:105210003F902F9008956115710519F3FB0180816E
:105220008077F9F2DA018C91FA018F3209F4A3C088
:10523000FE01F296FBABEAABF8019F012F5F3F4FF7
:105240008081803209F4AFC0FDA3ECA39F01A901C6
:105250004E1B5F0B8901D9018D919D01882371F04F
:105260008F3209F0A2C0CF01840F951F8C01DC01A1
:105270002D91CD012032D1F32F32C1F3DA01AE0FDF
:10528000BF1FAD014E1B5F0BEA17FB0709F4A7C058
:105290008E918E32B1F38032A1F34F3F510511F060
:1052A0000CF09FCF5BA34AA3DE0197965D0180E2DD
:1052B0008D93CAA8DBA8CA16DB06D1F7DF01CD01A2
:1052C0008E1B9F0B2D912E32D1F32032C1F3772408
:1052D0007394009709F0712C9A01215031094F0104
:1052E000840E951E2F3F320709F07CC09EA0512CE2
:1052F000A7E06A2E812C212CB8E04B2E841795074D
:105300000CF0AEC0DF01A80FB91FCC90CEAAAC2D17
:10531000A03209F4A3C0AE3221F48217930709F03A
:105320009DC0CEA8BC2DB232A9F0BC3799F0AC2DEF
:10533000AA52A63010F4BD3269F4AEA9AA53A63021
:1053400048F0AEA9AB55A33028F0AEA9A152AE35B6
:1053500008F452C08217930709F0C6C0BAE0CB2EFA
:105360006C1409F4CCC0C901AAE06A2EB8E08B2EF7
:10537000A0E14A2E5FC08F0181918F32E1F3DB0102
:1053800016966D917C91811104C0C7010E94630D36
:1053900029CFCE0101960E94630DBE016F5F7F4F42
:1053A000811146CF1ECFF90148CF8C3509F419CFB2
:1053B000982F977F923209F414CF8A3309F411CFD2
:1053C000982F9F7B9C3309F40CCF92EC980F92306E
:1053D00008F407CF80528F3508F439CF02CF50E060
:1053E00040E060CFD401CE904D01BEE2CB1609F46F
:1053F0007DCF2150310976CF8217930709F4AECFC4
:10540000681408F474C0AEA9A156AA31D0F4AEA9AC
:10541000A052AEAB542833243394380C6501C80C29
:10542000D11CD601CEA8CC92A6E0DA2E832CD314C0
:1054300008F0932C019662CF712CBFE5BEABBFE59F
:10544000CB2EAFEBAC0DAA3130F72428E4CFC90145
:10545000BAE06B2EA8E08A2EB0E14B2E712CEACF79
:105460009EA28FA1803209F4BCCE772011F12520B5
:1054700011F082E0582E59A2F8018081882361F151
:1054800020E0AE014F5D5F4FC7010E94CB2588230E
:1054900009F4A7CE80E2F701DE01119601900D928A
:1054A0008A95E1F7C7010E948B0BBE016F5F7F4FAA
:1054B000C3CE81E089A3892D90E0F501E80FF91FA3
:1054C0002EE7208328E230E02C0F3D1F820F931F30
:1054D00021E3DC012C93D0CF2FA9AE014F5D5F4FAC
:1054E000C7010E94CB257ECE681408F0A5CFAAE0A4
:1054F000DA2E6D1421F0281739070CF0A8CF9EA2E0
:10550000712CAFCFAF92BF92CF92DF92EF92FF920A
:105510000F931F93CF93DF93C82F062F642F70E054
:1055200090E080E00E94493F20E030E04EEF52E4FE
:105530000E94A13E2BE734E14EE25EE30E9444402C
:1055400020E030E04EEF52E40E94D73F0E94133F2C
:10555000162F809157028350823008F0CDC0809181
:105560002E0D8C13E1C084E3A82E85E0B82E6501D2
:10557000D0E0C0E0F601F1906F01F01241C00C2FB5
:105580000F5F80911302813480F00E94633D2EE50D
:1055900030E040E050E00E94D13D6F5D7F4F8F4F83
:1055A0009F4F402F8DE40E94860C202F412F6F2D9E
:1055B00080E80E94590C202F412F6F2D80E90E9416
:1055C000590CC65CDA4F81E08883809154028823AD
:1055D00009F4AAC08091160D8111A6C060E00E9456
:1055E0000B1767E087E391E1DF91CF911F910F9156
:1055F000FF90EF90DF90CF90BF90AF900C94C317C7
:105600000E946A132196C630D10509F0B3CF80916C
:10561000340580933205C4E3D5E089919091320539
:10562000891718F48111809332050E946A13F5E0FE
:10563000CA33DF0791F70E94633D26E030E040E087
:1056400050E00E94D13D6B017C01FB01EC5CFA4F04
:1056500090818091320598130EC08FEFC81AD80A36
:10566000E80AF80A96E0C916D104E104F10419F435
:10567000C12CD12C7601D0E0C0E0F50181915F0111
:10568000811133C06E01DD0FEE08FF08C1E0CC0DC3
:1056900080911302813480F00E94633D2EE530E05A
:1056A00040E050E00E94D13D6F5D7F4F8F4F9F4F94
:1056B0004C2F8DE40E94860CC6018C5C9A4F5C01D5
:1056C0002C2F412FFC01608180E80E94590C2C2F67
:1056D000412F602F80E90E94590CF5010083F601EB
:1056E000E65CFA4F81E0808370CF0E946A132196B6
:1056F000C630D10511F6CACF2C2F412F602F80E97B
:105700000E94590C60E080E00E940B178AEF92E043
:10571000DF91CF911F910F91FF90EF90DF90CF908D
:10572000BF90AF900C94560EDF91CF911F910F91C7
:10573000FF90EF90DF90CF90BF90AF9008958F9241
:105740009F92AF92BF92DF92EF92FF920F931F93BF
:10575000CF93DF93CDB7DEB762970FB6F894DEBF75
:105760000FBECDBF182F609141057091420520E01A
:105770004DEA52E083EA9EE00E94CE28811110C0DB
:105780000E941A1760E080E00E940B178CEF92E0F5
:105790000E94560E68E873E180E090E00E947E046B
:1057A00010921C0D10921B0DE0901B0DF0901C0D23
:1057B00087EEE81683E0F80608F093C08091C70EE4
:1057C00081118FC08091A30E807709F48AC08091E7
:1057D000B30E9091B40EA091B50EB091B60E8F712C
:1057E0009927AA27BB27892B8A2B8B2B09F079C0F5
:1057F00000E0D12C8090B30E9090B40EA090B50E26
:10580000B090B60E60E083EA9EE00E94670F0097BA
:1058100009F467C0FC012081222309F462C02E3202
:1058200009F455C0253E09F452C0338533FD51C0FB
:10583000002321F00E945F0A8D1153C0B501A4011D
:1058400095E076956795579547959A95D1F720E01D
:1058500063EA7EE087EC9EE00E947D0D882309F4D8
:1058600040C08091C70E827169F5F701EE0FFF1FEE
:10587000E85BFA4F8091CB0E9091CC0E91838083A0
:105880001123C9F0CE0101960E94B60F1A8A60E07A
:1058900072E0CE0101960E94FB41892B61F4E092F7
:1058A0001D0DE0921E0DE0921F0DE092200DE09282
:1058B000210DE092220DFFEFEF1AFF0AF0921C0D6E
:1058C000E0921B0D87EC9EE00E948B0B6DCF00E0F9
:1058D00091CF3F30E1F726FF8DCF022F0F71D58496
:1058E00089CF62960FB6F894DEBF0FBECDBFDF91B1
:1058F000CF911F910F91FF90EF90DF90BF90AF90ED
:105900009F908F900895EF92FF920F931F93CF93E4
:10591000DF93CDB7DEB7C656D1090FB6F894DEBF18
:105920000FBECDBF109254020E941A1760E080E0B3
:105930000E940B1788E093E00E94560E61E080E021
:105940000E940B1786E193E00E94560E7E0125E52A
:10595000E20EF11C8091540281110C941D350E94BD
:105960006A130E94A60C8093230D823009F4F4C3BD
:1059700008F0C1C3882309F4C1C3813059F780936B
:105980005402E0915602F0E0E45EF24FE081EE0F47
:10599000FF0BE85BFA4F61E0808191810E94D0109B
:1059A00081110AC00E941A1760E080E00E940B1764
:1059B0008DE992E00E94560E81E08093560260913C
:1059C000060462956F7070E090E080E00E944B3FAB
:1059D00020E030E040E05FE30E94353E0E94133F4C
:1059E0007A8369836091070462956F7070E090E03C
:1059F00080E00E944B3F20E030E040E05FE30E9407
:105A0000353E0E94133F7C836B836091080466954A
:105A10006695669570E090E080E00E944B3F20E044
:105A200030E040E05FE30E94353E0E94133F7E83FA
:105A30006D836091120466956695669570E090E0BE
:105A400080E00E944B3F20E030E040E05FE30E94B6
:105A5000353E0E94133F7A8F698F60911C046695D2
:105A60006695669570E090E080E00E944B3F20E0F4
:105A700030E040E05FE30E94353E0E94133F7EA786
:105A80006DA76091260466956695669570E090E036
:105A900080E00E944B3F20E030E040E05FE30E9466
:105AA000353E0E94133F23967FAF6EAF23976091E0
:105AB000090462956695677070E090E080E00E944E
:105AC0004B3F20E030E040E05FE30E94353E0E9423
:105AD000133F78876F8360911304629566956770B2
